{
  "contractName": "TimeTracking",
  "abi": [
    {
      "inputs": [],
      "stateMutability": "nonpayable",
      "type": "constructor"
    },
    {
      "anonymous": false,
      "inputs": [
        {
          "indexed": true,
          "internalType": "address",
          "name": "user",
          "type": "address"
        },
        {
          "indexed": true,
          "internalType": "uint256",
          "name": "date",
          "type": "uint256"
        },
        {
          "indexed": false,
          "internalType": "uint256",
          "name": "hoursWorked",
          "type": "uint256"
        }
      ],
      "name": "WorkLogged",
      "type": "event"
    },
    {
      "inputs": [
        {
          "internalType": "address",
          "name": "",
          "type": "address"
        },
        {
          "internalType": "uint256",
          "name": "",
          "type": "uint256"
        }
      ],
      "name": "dailyWorks",
      "outputs": [
        {
          "internalType": "uint256",
          "name": "date",
          "type": "uint256"
        },
        {
          "internalType": "uint256",
          "name": "hoursWorked",
          "type": "uint256"
        }
      ],
      "stateMutability": "view",
      "type": "function",
      "constant": true
    },
    {
      "inputs": [],
      "name": "owner",
      "outputs": [
        {
          "internalType": "address",
          "name": "",
          "type": "address"
        }
      ],
      "stateMutability": "view",
      "type": "function",
      "constant": true
    },
    {
      "inputs": [
        {
          "internalType": "uint256",
          "name": "hoursWorked",
          "type": "uint256"
        }
      ],
      "name": "logWork",
      "outputs": [],
      "stateMutability": "nonpayable",
      "type": "function"
    },
    {
      "inputs": [],
      "name": "getTotalHoursWorked",
      "outputs": [
        {
          "internalType": "uint256",
          "name": "",
          "type": "uint256"
        }
      ],
      "stateMutability": "view",
      "type": "function",
      "constant": true
    },
    {
      "inputs": [],
      "name": "getDailyWorksCount",
      "outputs": [
        {
          "internalType": "uint256",
          "name": "",
          "type": "uint256"
        }
      ],
      "stateMutability": "view",
      "type": "function",
      "constant": true
    },
    {
      "inputs": [
        {
          "internalType": "address",
          "name": "newOwner",
          "type": "address"
        }
      ],
      "name": "transferOwnership",
      "outputs": [],
      "stateMutability": "nonpayable",
      "type": "function"
    }
  ],
  "bytecode": "0x608060405234801561001057600080fd5b50336000806101000a81548173ffffffffffffffffffffffffffffffffffffffff021916908373ffffffffffffffffffffffffffffffffffffffff1602179055506108c5806100606000396000f3fe608060405234801561001057600080fd5b506004361061007f576000357c0100000000000000000000000000000000000000000000000000000000900480633e34fa6c146100845780638b35ee7a146100a25780638da5cb5b146100c057806398877d14146100de578063bb253ff51461010f578063f2fde38b1461012b575b600080fd5b61008c610147565b60405161009991906104e9565b60405180910390f35b6100aa610222565b6040516100b791906104e9565b60405180910390f35b6100c861026c565b6040516100d59190610545565b60405180910390f35b6100f860048036038101906100f391906105bd565b610290565b6040516101069291906105fd565b60405180910390f35b61012960048036038101906101249190610626565b6102d1565b005b61014560048036038101906101409190610653565b6103ff565b005b60008060005b600160003373ffffffffffffffffffffffffffffffffffffffff1673ffffffffffffffffffffffffffffffffffffffff1681526020019081526020016000208054905081101561021a57600160003373ffffffffffffffffffffffffffffffffffffffff1673ffffffffffffffffffffffffffffffffffffffff16815260200190815260200160002081815481106101e8576101e7610680565b5b9060005260206000209060020201600101548261020591906106de565b9150808061021290610712565b91505061014d565b508091505090565b6000600160003373ffffffffffffffffffffffffffffffffffffffff1673ffffffffffffffffffffffffffffffffffffffff16815260200190815260200160002080549050905090565b60008054906101000a900473ffffffffffffffffffffffffffffffffffffffff1681565b600160205281600052604060002081815481106102ac57600080fd5b9060005260206000209060020201600091509150508060000154908060010154905082565b60008111610314576040517f08c379a000000000000000000000000000000000000000000000000000000000815260040161030b906107dd565b60405180910390fd5b6000429050600160003373ffffffffffffffffffffffffffffffffffffffff1673ffffffffffffffffffffffffffffffffffffffff168152602001908152602001600020604051806040016040528083815260200184815250908060018154018082558091505060019003906000526020600020906002020160009091909190915060008201518160000155602082015181600101555050803373ffffffffffffffffffffffffffffffffffffffff167f7f3104e1357e1872be4a1413dd412f2cfe4f59bddf372dd5414f414d0eef5e6d846040516103f391906104e9565b60405180910390a35050565b60008054906101000a900473ffffffffffffffffffffffffffffffffffffffff1673ffffffffffffffffffffffffffffffffffffffff163373ffffffffffffffffffffffffffffffffffffffff161461048d576040517f08c379a00000000000000000000000000000000000000000000000000000000081526004016104849061086f565b60405180910390fd5b806000806101000a81548173ffffffffffffffffffffffffffffffffffffffff021916908373ffffffffffffffffffffffffffffffffffffffff16021790555050565b6000819050919050565b6104e3816104d0565b82525050565b60006020820190506104fe60008301846104da565b92915050565b600073ffffffffffffffffffffffffffffffffffffffff82169050919050565b600061052f82610504565b9050919050565b61053f81610524565b82525050565b600060208201905061055a6000830184610536565b92915050565b600080fd5b61056e81610524565b811461057957600080fd5b50565b60008135905061058b81610565565b92915050565b61059a816104d0565b81146105a557600080fd5b50565b6000813590506105b781610591565b92915050565b600080604083850312156105d4576105d3610560565b5b60006105e28582860161057c565b92505060206105f3858286016105a8565b9150509250929050565b600060408201905061061260008301856104da565b61061f60208301846104da565b9392505050565b60006020828403121561063c5761063b610560565b5b600061064a848285016105a8565b91505092915050565b60006020828403121561066957610668610560565b5b60006106778482850161057c565b91505092915050565b7f4e487b7100000000000000000000000000000000000000000000000000000000600052603260045260246000fd5b7f4e487b7100000000000000000000000000000000000000000000000000000000600052601160045260246000fd5b60006106e9826104d0565b91506106f4836104d0565b925082820190508082111561070c5761070b6106af565b5b92915050565b600061071d826104d0565b91507fffffffffffffffffffffffffffffffffffffffffffffffffffffffffffffffff820361074f5761074e6106af565b5b600182019050919050565b600082825260208201905092915050565b7f486f75727320776f726b6564206d75737420626520677265617465722074686160008201527f6e20300000000000000000000000000000000000000000000000000000000000602082015250565b60006107c760238361075a565b91506107d28261076b565b604082019050919050565b600060208201905081810360008301526107f6816107ba565b9050919050565b7f4f6e6c7920746865206f776e65722063616e2063616c6c20746869732066756e60008201527f6374696f6e000000000000000000000000000000000000000000000000000000602082015250565b600061085960258361075a565b9150610864826107fd565b604082019050919050565b600060208201905081810360008301526108888161084c565b905091905056fea2646970667358221220dda203d0770063795600f62e9d0225eacc2fdfeaeb4c141ba5885293786dd62264736f6c63430008130033",
  "immutableReferences": {},
  "source": "// SPDX-License-Identifier: MIT\npragma solidity 0.8.19;\n\ncontract TimeTracking {\n    address public owner;\n\n    struct DailyWork {\n        uint256 date;\n        uint256 hoursWorked;\n    }\n\n    mapping(address => DailyWork[]) public dailyWorks;\n\n    event WorkLogged(address indexed user, uint256 indexed date, uint256 hoursWorked);\n\n    modifier onlyOwner() {\n        require(msg.sender == owner, \"Only the owner can call this function\");\n        _;\n    }\n\n    constructor() {\n        owner = msg.sender;\n    }\n\n    function logWork(uint256 hoursWorked) public {\n        require(hoursWorked > 0, \"Hours worked must be greater than 0\");\n\n        // Use the current timestamp as the date\n        uint256 date = block.timestamp;\n\n        dailyWorks[msg.sender].push(DailyWork(date, hoursWorked));\n        emit WorkLogged(msg.sender, date, hoursWorked);\n    }\n\n    function getTotalHoursWorked() public view returns (uint256) {\n        uint256 totalHours;\n\n        for (uint256 i = 0; i < dailyWorks[msg.sender].length; i++) {\n            totalHours += dailyWorks[msg.sender][i].hoursWorked;\n        }\n\n        return totalHours;\n    }\n\n    function getDailyWorksCount() public view returns (uint256) {\n        return dailyWorks[msg.sender].length;\n    }\n\n    // Owner can transfer ownership to another address\n    function transferOwnership(address newOwner) public onlyOwner {\n        owner = newOwner;\n    }\n}\n",
  "sourcePath": "/Users/shubhamhoney/Documents/IITJ/Assignments/SDE/blockchain/contracts/TimeTracking.sol",
  "compiler": {
    "name": "solc",
    "version": "0.8.19+commit.7dd6d404.Emscripten.clang"
  },
  "schemaVersion": "3.4.16",
  "updatedAt": "2023-11-22T10:46:46.278Z",
  "networkType": "ethereum",
  "devdoc": {
    "kind": "dev",
    "methods": {},
    "version": 1
  },
  "userdoc": {
    "kind": "user",
    "methods": {},
    "version": 1
  }
}